{
  "_format": "hh-sol-artifact-1",
  "contractName": "Pool",
  "sourceName": "src/Pool.sol",
  "abi": [
    {
      "inputs": [
        {
          "internalType": "address",
          "name": "investmentAddress",
          "type": "address"
        }
      ],
      "stateMutability": "nonpayable",
      "type": "constructor"
    },
    {
      "inputs": [],
      "name": "adminCancelGame",
      "outputs": [],
      "stateMutability": "nonpayable",
      "type": "function"
    },
    {
      "inputs": [
        {
          "internalType": "uint8[6]",
          "name": "newNums",
          "type": "uint8[6]"
        }
      ],
      "name": "buyTicket",
      "outputs": [],
      "stateMutability": "payable",
      "type": "function"
    },
    {
      "inputs": [
        {
          "internalType": "uint256",
          "name": "newRate",
          "type": "uint256"
        }
      ],
      "name": "changeRate",
      "outputs": [],
      "stateMutability": "nonpayable",
      "type": "function"
    },
    {
      "inputs": [],
      "name": "deposit",
      "outputs": [],
      "stateMutability": "payable",
      "type": "function"
    },
    {
      "inputs": [],
      "name": "doCharityDonation",
      "outputs": [
        {
          "internalType": "uint256",
          "name": "",
          "type": "uint256"
        }
      ],
      "stateMutability": "view",
      "type": "function"
    },
    {
      "inputs": [],
      "name": "draw",
      "outputs": [],
      "stateMutability": "nonpayable",
      "type": "function"
    },
    {
      "inputs": [],
      "name": "enableGame",
      "outputs": [],
      "stateMutability": "nonpayable",
      "type": "function"
    },
    {
      "inputs": [],
      "name": "gameOngoing",
      "outputs": [
        {
          "internalType": "bool",
          "name": "",
          "type": "bool"
        }
      ],
      "stateMutability": "view",
      "type": "function"
    },
    {
      "inputs": [],
      "name": "gameRound",
      "outputs": [
        {
          "internalType": "uint32",
          "name": "",
          "type": "uint32"
        }
      ],
      "stateMutability": "view",
      "type": "function"
    },
    {
      "inputs": [],
      "name": "getBalance",
      "outputs": [
        {
          "internalType": "uint256",
          "name": "",
          "type": "uint256"
        }
      ],
      "stateMutability": "view",
      "type": "function"
    },
    {
      "inputs": [],
      "name": "getExpectedPrize",
      "outputs": [
        {
          "internalType": "uint256",
          "name": "",
          "type": "uint256"
        }
      ],
      "stateMutability": "view",
      "type": "function"
    },
    {
      "inputs": [],
      "name": "getFunds",
      "outputs": [
        {
          "internalType": "uint256",
          "name": "",
          "type": "uint256"
        }
      ],
      "stateMutability": "view",
      "type": "function"
    },
    {
      "inputs": [],
      "name": "getInterestRate",
      "outputs": [
        {
          "internalType": "uint256",
          "name": "",
          "type": "uint256"
        }
      ],
      "stateMutability": "view",
      "type": "function"
    },
    {
      "inputs": [],
      "name": "getInvestedAmount",
      "outputs": [
        {
          "internalType": "uint256",
          "name": "",
          "type": "uint256"
        }
      ],
      "stateMutability": "view",
      "type": "function"
    },
    {
      "inputs": [],
      "name": "getPlayerNumber",
      "outputs": [
        {
          "internalType": "uint32",
          "name": "",
          "type": "uint32"
        },
        {
          "internalType": "uint8[6]",
          "name": "",
          "type": "uint8[6]"
        }
      ],
      "stateMutability": "view",
      "type": "function"
    },
    {
      "inputs": [],
      "name": "getPoolBalance",
      "outputs": [
        {
          "internalType": "uint256",
          "name": "",
          "type": "uint256"
        }
      ],
      "stateMutability": "view",
      "type": "function"
    },
    {
      "inputs": [],
      "name": "getTicketPrice",
      "outputs": [
        {
          "internalType": "uint32",
          "name": "",
          "type": "uint32"
        }
      ],
      "stateMutability": "view",
      "type": "function"
    },
    {
      "inputs": [
        {
          "internalType": "address",
          "name": "user",
          "type": "address"
        }
      ],
      "name": "getUserInterestRate",
      "outputs": [
        {
          "internalType": "uint256",
          "name": "",
          "type": "uint256"
        }
      ],
      "stateMutability": "view",
      "type": "function"
    },
    {
      "inputs": [],
      "name": "getWinningNumber",
      "outputs": [
        {
          "internalType": "uint32",
          "name": "",
          "type": "uint32"
        },
        {
          "internalType": "uint8[6]",
          "name": "",
          "type": "uint8[6]"
        }
      ],
      "stateMutability": "view",
      "type": "function"
    },
    {
      "inputs": [],
      "name": "interestRate",
      "outputs": [
        {
          "internalType": "uint256",
          "name": "",
          "type": "uint256"
        }
      ],
      "stateMutability": "view",
      "type": "function"
    },
    {
      "inputs": [],
      "name": "investedAmount",
      "outputs": [
        {
          "internalType": "uint256",
          "name": "",
          "type": "uint256"
        }
      ],
      "stateMutability": "view",
      "type": "function"
    },
    {
      "inputs": [],
      "name": "lastUpdate",
      "outputs": [
        {
          "internalType": "uint256",
          "name": "",
          "type": "uint256"
        }
      ],
      "stateMutability": "view",
      "type": "function"
    },
    {
      "inputs": [
        {
          "internalType": "uint256",
          "name": "amount",
          "type": "uint256"
        }
      ],
      "name": "manuallyInvest",
      "outputs": [],
      "stateMutability": "nonpayable",
      "type": "function"
    },
    {
      "inputs": [
        {
          "internalType": "uint256",
          "name": "amount",
          "type": "uint256"
        }
      ],
      "name": "manuallyWithdraw",
      "outputs": [],
      "stateMutability": "nonpayable",
      "type": "function"
    },
    {
      "inputs": [],
      "name": "pauseGame",
      "outputs": [],
      "stateMutability": "nonpayable",
      "type": "function"
    },
    {
      "inputs": [],
      "name": "playerCancelTicket",
      "outputs": [],
      "stateMutability": "nonpayable",
      "type": "function"
    },
    {
      "inputs": [
        {
          "internalType": "uint256",
          "name": "",
          "type": "uint256"
        }
      ],
      "name": "playerList",
      "outputs": [
        {
          "internalType": "address",
          "name": "",
          "type": "address"
        }
      ],
      "stateMutability": "view",
      "type": "function"
    },
    {
      "inputs": [],
      "name": "playerNum",
      "outputs": [
        {
          "internalType": "uint32",
          "name": "",
          "type": "uint32"
        }
      ],
      "stateMutability": "view",
      "type": "function"
    },
    {
      "inputs": [],
      "name": "prizePercentage",
      "outputs": [
        {
          "internalType": "uint8",
          "name": "",
          "type": "uint8"
        }
      ],
      "stateMutability": "view",
      "type": "function"
    },
    {
      "inputs": [
        {
          "internalType": "string",
          "name": "name",
          "type": "string"
        }
      ],
      "name": "register",
      "outputs": [],
      "stateMutability": "nonpayable",
      "type": "function"
    },
    {
      "inputs": [
        {
          "internalType": "uint8",
          "name": "newPercent",
          "type": "uint8"
        }
      ],
      "name": "setPrizePercentage",
      "outputs": [],
      "stateMutability": "nonpayable",
      "type": "function"
    },
    {
      "inputs": [
        {
          "internalType": "uint32",
          "name": "newPrice",
          "type": "uint32"
        }
      ],
      "name": "setTicketPrice",
      "outputs": [],
      "stateMutability": "nonpayable",
      "type": "function"
    },
    {
      "inputs": [
        {
          "internalType": "address",
          "name": "",
          "type": "address"
        }
      ],
      "name": "ticketOrders",
      "outputs": [
        {
          "internalType": "bool",
          "name": "isValid",
          "type": "bool"
        },
        {
          "internalType": "bool",
          "name": "isClaimed",
          "type": "bool"
        },
        {
          "internalType": "uint32",
          "name": "playerGameRound",
          "type": "uint32"
        }
      ],
      "stateMutability": "view",
      "type": "function"
    },
    {
      "inputs": [],
      "name": "ticketPrice",
      "outputs": [
        {
          "internalType": "uint32",
          "name": "",
          "type": "uint32"
        }
      ],
      "stateMutability": "view",
      "type": "function"
    },
    {
      "inputs": [],
      "name": "totalInterest",
      "outputs": [
        {
          "internalType": "uint256",
          "name": "",
          "type": "uint256"
        }
      ],
      "stateMutability": "view",
      "type": "function"
    },
    {
      "inputs": [
        {
          "internalType": "address",
          "name": "",
          "type": "address"
        }
      ],
      "name": "users",
      "outputs": [
        {
          "internalType": "uint256",
          "name": "balance",
          "type": "uint256"
        },
        {
          "internalType": "uint256",
          "name": "lastUpdateTime",
          "type": "uint256"
        },
        {
          "internalType": "uint256",
          "name": "interestRate",
          "type": "uint256"
        },
        {
          "internalType": "string",
          "name": "name",
          "type": "string"
        }
      ],
      "stateMutability": "view",
      "type": "function"
    },
    {
      "inputs": [
        {
          "internalType": "uint256",
          "name": "",
          "type": "uint256"
        }
      ],
      "name": "winnerList",
      "outputs": [
        {
          "internalType": "address",
          "name": "",
          "type": "address"
        }
      ],
      "stateMutability": "view",
      "type": "function"
    },
    {
      "inputs": [
        {
          "internalType": "uint256",
          "name": "",
          "type": "uint256"
        }
      ],
      "name": "winningNums",
      "outputs": [
        {
          "internalType": "uint8",
          "name": "",
          "type": "uint8"
        }
      ],
      "stateMutability": "view",
      "type": "function"
    },
    {
      "inputs": [
        {
          "internalType": "uint256",
          "name": "amount",
          "type": "uint256"
        }
      ],
      "name": "withdraw",
      "outputs": [],
      "stateMutability": "nonpayable",
      "type": "function"
    }
  ],
  "bytecode": "0x60806040523480156200001157600080fd5b5060405162005498380380620054988339818101604052810190620000379190620002b8565b33600160006101000a81548173ffffffffffffffffffffffffffffffffffffffff021916908373ffffffffffffffffffffffffffffffffffffffff1602179055506000600281905550426003819055506002600481905550600060058190555080600660006101000a81548173ffffffffffffffffffffffffffffffffffffffff021916908373ffffffffffffffffffffffffffffffffffffffff160217905550600660009054906101000a900473ffffffffffffffffffffffffffffffffffffffff1673ffffffffffffffffffffffffffffffffffffffff1663f2c298be6040518163ffffffff1660e01b815260040162000133906200034b565b600060405180830381600087803b1580156200014e57600080fd5b505af115801562000163573d6000803e3d6000fd5b5050505060016006601a6101000a81548163ffffffff021916908363ffffffff1602179055506207a120600660156101000a81548163ffffffff021916908363ffffffff1602179055506046600660196101000a81548160ff021916908360ff1602179055506000600660146101000a81548160ff02191690831515021790555060005b60068160ff1610156200024657600060078260ff166006811062000210576200020f6200036d565b5b602091828204019190066101000a81548160ff021916908360ff16021790555080806200023d90620003d8565b915050620001e7565b505062000406565b600080fd5b600073ffffffffffffffffffffffffffffffffffffffff82169050919050565b6000620002808262000253565b9050919050565b620002928162000273565b81146200029e57600080fd5b50565b600081519050620002b28162000287565b92915050565b600060208284031215620002d157620002d06200024e565b5b6000620002e184828501620002a1565b91505092915050565b600082825260208201905092915050565b7f4b4b000000000000000000000000000000000000000000000000000000000000600082015250565b600062000333600283620002ea565b91506200034082620002fb565b602082019050919050565b60006020820190508181036000830152620003668162000324565b9050919050565b7f4e487b7100000000000000000000000000000000000000000000000000000000600052603260045260246000fd5b7f4e487b7100000000000000000000000000000000000000000000000000000000600052601160045260246000fd5b600060ff82169050919050565b6000620003e582620003cb565b915060ff8203620003fb57620003fa6200039c565b5b600182019050919050565b61508280620004166000396000f3fe6080604052600436106102305760003560e01c806374e7493b1161012e578063bdd42f2d116100ab578063dc2d49611161006f578063dc2d4961146107d6578063eaab4597146107ff578063ed4597631461082a578063ef6920d714610853578063f2c298be1461086a57610230565b8063bdd42f2d1461071d578063c046371114610739578063c6cac2a914610764578063d0e30db01461078d578063d23e79e61461079757610230565b8063a5f9b5c2116100f2578063a5f9b5c21461061f578063a87430ba1461064a578063abd70aa21461068a578063ae6d9073146106b5578063bc7a36d6146106f257610230565b806374e7493b1461055d57806374f7d741146105865780637c3a00fd1461059d57806387bb7ae0146105c85780638b0b9ed4146105f357610230565b806323974601116101bc5780635257b566116101805780635257b566146104625780635578027e1461048d57806357b5e09a146104ca578063622430961461050757806365f819461461053257610230565b806323974601146103a35780632e1a7d4d146103e0578063340988de14610409578063499831f2146104205780634d9b37351461043757610230565b8063112d83c211610203578063112d83c2146102cb57806311dc7335146102f657806312065fe0146103215780631209b1f61461034c57806313eaac6c1461037757610230565b806303e28366146102355780630ddb9ec1146102605780630eecae2114610289578063104492a0146102a0575b600080fd5b34801561024157600080fd5b5061024a610893565b60405161025791906135b9565b60405180910390f35b34801561026c57600080fd5b506102876004803603810190610282919061361e565b6108a9565b005b34801561029557600080fd5b5061029e61098a565b005b3480156102ac57600080fd5b506102b5611149565b6040516102c2919061365a565b60405180910390f35b3480156102d757600080fd5b506102e061117a565b6040516102ed919061365a565b60405180910390f35b34801561030257600080fd5b5061030b611212565b6040516103189190613691565b60405180910390f35b34801561032d57600080fd5b50610336611225565b604051610343919061365a565b60405180910390f35b34801561035857600080fd5b50610361611304565b60405161036e91906135b9565b60405180910390f35b34801561038357600080fd5b5061038c61131a565b60405161039a929190613757565b60405180910390f35b3480156103af57600080fd5b506103ca60048036038101906103c5919061361e565b611426565b6040516103d79190613691565b60405180910390f35b3480156103ec57600080fd5b506104076004803603810190610402919061361e565b611450565b005b34801561041557600080fd5b5061041e611775565b005b34801561042c57600080fd5b50610435611969565b005b34801561044357600080fd5b5061044c611a16565b604051610459919061365a565b60405180910390f35b34801561046e57600080fd5b50610477611aae565b604051610484919061365a565b60405180910390f35b34801561049957600080fd5b506104b460048036038101906104af919061361e565b611b48565b6040516104c191906137c1565b60405180910390f35b3480156104d657600080fd5b506104f160048036038101906104ec9190613808565b611b87565b6040516104fe919061365a565b60405180910390f35b34801561051357600080fd5b5061051c611d1b565b604051610529919061365a565b60405180910390f35b34801561053e57600080fd5b50610547611db5565b6040516105549190613850565b60405180910390f35b34801561056957600080fd5b50610584600480360381019061057f919061361e565b611dc8565b005b34801561059257600080fd5b5061059b611e62565b005b3480156105a957600080fd5b506105b2611fb4565b6040516105bf919061365a565b60405180910390f35b3480156105d457600080fd5b506105dd611fba565b6040516105ea91906135b9565b60405180910390f35b3480156105ff57600080fd5b50610608611fd4565b604051610616929190613757565b60405180910390f35b34801561062b57600080fd5b5061063461206c565b60405161064191906135b9565b60405180910390f35b34801561065657600080fd5b50610671600480360381019061066c9190613808565b612082565b60405161068194939291906138fb565b60405180910390f35b34801561069657600080fd5b5061069f61213a565b6040516106ac919061365a565b60405180910390f35b3480156106c157600080fd5b506106dc60048036038101906106d7919061361e565b612142565b6040516106e991906137c1565b60405180910390f35b3480156106fe57600080fd5b50610707612181565b604051610714919061365a565b60405180910390f35b61073760048036038101906107329190613aa9565b612187565b005b34801561074557600080fd5b5061074e612774565b60405161075b919061365a565b60405180910390f35b34801561077057600080fd5b5061078b60048036038101906107869190613b02565b61277a565b005b610795612877565b005b3480156107a357600080fd5b506107be60048036038101906107b99190613808565b612aa2565b6040516107cd93929190613b2f565b60405180910390f35b3480156107e257600080fd5b506107fd60048036038101906107f89190613b66565b612af6565b005b34801561080b57600080fd5b50610814612bfa565b604051610821919061365a565b60405180910390f35b34801561083657600080fd5b50610851600480360381019061084c919061361e565b612c00565b005b34801561085f57600080fd5b50610868612d6e565b005b34801561087657600080fd5b50610891600480360381019061088c9190613c48565b612e1b565b005b600860009054906101000a900463ffffffff1681565b600160009054906101000a900473ffffffffffffffffffffffffffffffffffffffff1673ffffffffffffffffffffffffffffffffffffffff163373ffffffffffffffffffffffffffffffffffffffff1614610939576040517f08c379a000000000000000000000000000000000000000000000000000000000815260040161093090613cdd565b60405180910390fd5b80600554101561097e576040517f08c379a000000000000000000000000000000000000000000000000000000000815260040161097590613d6f565b60405180910390fd5b61098781612f85565b50565b600160009054906101000a900473ffffffffffffffffffffffffffffffffffffffff1673ffffffffffffffffffffffffffffffffffffffff163373ffffffffffffffffffffffffffffffffffffffff1614610a1a576040517f08c379a0000000000000000000000000000000000000000000000000000000008152600401610a1190613e01565b60405180910390fd5b6000600860009054906101000a900463ffffffff1663ffffffff1611610a75576040517f08c379a0000000000000000000000000000000000000000000000000000000008152600401610a6c90613e93565b60405180910390fd5b6000600660146101000a81548160ff021916908315150217905550610a9861301c565b6007906006610aa89291906134a0565b5060005b600860009054906101000a900463ffffffff1663ffffffff168163ffffffff161015610e4c576006601a9054906101000a900463ffffffff1663ffffffff16600b600060098463ffffffff1681548110610b0957610b08613eb3565b5b9060005260206000200160009054906101000a900473ffffffffffffffffffffffffffffffffffffffff1673ffffffffffffffffffffffffffffffffffffffff1673ffffffffffffffffffffffffffffffffffffffff16815260200190815260200160002060000160029054906101000a900463ffffffff1663ffffffff16148015610c2c575060011515600b600060098463ffffffff1681548110610bb257610bb1613eb3565b5b9060005260206000200160009054906101000a900473ffffffffffffffffffffffffffffffffffffffff1673ffffffffffffffffffffffffffffffffffffffff1673ffffffffffffffffffffffffffffffffffffffff16815260200190815260200160002060000160009054906101000a900460ff161515145b15610e39576000610d87600b600060098563ffffffff1681548110610c5457610c53613eb3565b5b9060005260206000200160009054906101000a900473ffffffffffffffffffffffffffffffffffffffff1673ffffffffffffffffffffffffffffffffffffffff1673ffffffffffffffffffffffffffffffffffffffff168152602001908152602001600020600101600680602002604051908101604052809291908260068015610d19576020028201916000905b82829054906101000a900460ff1660ff1681526020019060010190602082600001049283019260010382029150808411610ce25790505b50505050506007600680602002604051908101604052809291908260068015610d7d576020028201916000905b82829054906101000a900460ff1660ff1681526020019060010190602082600001049283019260010382029150808411610d465790505b5050505050613155565b90508015610e3757600a60098363ffffffff1681548110610dab57610daa613eb3565b5b9060005260206000200160009054906101000a900473ffffffffffffffffffffffffffffffffffffffff169080600181540180825580915050600190039060005260206000200160009091909190916101000a81548173ffffffffffffffffffffffffffffffffffffffff021916908373ffffffffffffffffffffffffffffffffffffffff1602179055505b505b8080610e4490613f11565b915050610aac565b506000600a8054905011156110c9576000600a805490506064610e6f9190613f3d565b600660199054906101000a900460ff1660ff1647610e8d9190613f3d565b610e979190613fae565b905060005b600a805490508163ffffffff1610156110c65760001515600b6000600a8463ffffffff1681548110610ed157610ed0613eb3565b5b9060005260206000200160009054906101000a900473ffffffffffffffffffffffffffffffffffffffff1673ffffffffffffffffffffffffffffffffffffffff1673ffffffffffffffffffffffffffffffffffffffff16815260200190815260200160002060000160019054906101000a900460ff16151514610f89576040517f08c379a0000000000000000000000000000000000000000000000000000000008152600401610f8090614051565b60405180910390fd5b6001600b6000600a8463ffffffff1681548110610fa957610fa8613eb3565b5b9060005260206000200160009054906101000a900473ffffffffffffffffffffffffffffffffffffffff1673ffffffffffffffffffffffffffffffffffffffff1673ffffffffffffffffffffffffffffffffffffffff16815260200190815260200160002060000160016101000a81548160ff021916908315150217905550600a8163ffffffff168154811061104257611041613eb3565b5b9060005260206000200160009054906101000a900473ffffffffffffffffffffffffffffffffffffffff1673ffffffffffffffffffffffffffffffffffffffff166108fc839081150290604051600060405180830381858888f193505050501580156110b2573d6000803e3d6000fd5b5080806110be90613f11565b915050610e9c565b50505b60016006601a8282829054906101000a900463ffffffff166110eb9190614071565b92506101000a81548163ffffffff021916908363ffffffff1602179055506000600860006101000a81548163ffffffff021916908363ffffffff16021790555060096000611139919061353a565b600a6000611147919061353a565b565b60006064600660199054906101000a900460ff1660ff164761116b9190613f3d565b6111759190613fae565b905090565b6000600160009054906101000a900473ffffffffffffffffffffffffffffffffffffffff1673ffffffffffffffffffffffffffffffffffffffff163373ffffffffffffffffffffffffffffffffffffffff161461120c576040517f08c379a000000000000000000000000000000000000000000000000000000000815260040161120390613e01565b60405180910390fd5b47905090565b600660199054906101000a900460ff1681565b6000806000803373ffffffffffffffffffffffffffffffffffffffff1673ffffffffffffffffffffffffffffffffffffffff16815260200190815260200160002060010154116112aa576040517f08c379a00000000000000000000000000000000000000000000000000000000081526004016112a1906140f5565b60405180910390fd5b6112b333613217565b6000803373ffffffffffffffffffffffffffffffffffffffff1673ffffffffffffffffffffffffffffffffffffffff168152602001908152602001600020600001546112ff9190614115565b905090565b600660159054906101000a900463ffffffff1681565b600061132461355b565b600b60003373ffffffffffffffffffffffffffffffffffffffff1673ffffffffffffffffffffffffffffffffffffffff16815260200190815260200160002060000160029054906101000a900463ffffffff16600b60003373ffffffffffffffffffffffffffffffffffffffff1673ffffffffffffffffffffffffffffffffffffffff16815260200190815260200160002060010180600680602002604051908101604052809291908260068015611417576020028201916000905b82829054906101000a900460ff1660ff16815260200190600101906020826000010492830192600103820291508084116113e05790505b50505050509050915091509091565b6007816006811061143657600080fd5b60209182820401919006915054906101000a900460ff1681565b60008060003373ffffffffffffffffffffffffffffffffffffffff1673ffffffffffffffffffffffffffffffffffffffff16815260200190815260200160002060010154116114d4576040517f08c379a00000000000000000000000000000000000000000000000000000000081526004016114cb906140f5565b60405180910390fd5b60008111611517576040517f08c379a000000000000000000000000000000000000000000000000000000000815260040161150e906141bb565b60405180910390fd5b611520336132e0565b806000803373ffffffffffffffffffffffffffffffffffffffff1673ffffffffffffffffffffffffffffffffffffffff1681526020019081526020016000206000015410156115a4576040517f08c379a000000000000000000000000000000000000000000000000000000000815260040161159b90614227565b60405180910390fd5b804710156115e55747816115b89190614247565b600560008282546115c99190614247565b925050819055506115e447826115df9190614247565b612f85565b5b806000803373ffffffffffffffffffffffffffffffffffffffff1673ffffffffffffffffffffffffffffffffffffffff16815260200190815260200160002060000160008282546116369190614247565b92505081905550426000803373ffffffffffffffffffffffffffffffffffffffff1673ffffffffffffffffffffffffffffffffffffffff168152602001908152602001600020600101819055508047116116c5576040517f08c379a00000000000000000000000000000000000000000000000000000000081526004016116bc906142c7565b60405180910390fd5b60003373ffffffffffffffffffffffffffffffffffffffff16826040516116eb90614318565b60006040518083038185875af1925050503d8060008114611728576040519150601f19603f3d011682016040523d82523d6000602084013e61172d565b606091505b5050905080611771576040517f08c379a000000000000000000000000000000000000000000000000000000000815260040161176890614379565b60405180910390fd5b5050565b60001515600660149054906101000a900460ff161515146117cb576040517f08c379a00000000000000000000000000000000000000000000000000000000081526004016117c29061440b565b60405180910390fd5b60005b600860009054906101000a900463ffffffff1663ffffffff168163ffffffff161015611966576006601a9054906101000a900463ffffffff1663ffffffff16600b600060098463ffffffff168154811061182b5761182a613eb3565b5b9060005260206000200160009054906101000a900473ffffffffffffffffffffffffffffffffffffffff1673ffffffffffffffffffffffffffffffffffffffff1673ffffffffffffffffffffffffffffffffffffffff16815260200190815260200160002060000160029054906101000a900463ffffffff1663ffffffff16036119535760098163ffffffff16815481106118c9576118c8613eb3565b5b9060005260206000200160009054906101000a900473ffffffffffffffffffffffffffffffffffffffff1673ffffffffffffffffffffffffffffffffffffffff166108fc600660159054906101000a900463ffffffff1663ffffffff169081150290604051600060405180830381858888f19350505050158015611951573d6000803e3d6000fd5b505b808061195e90613f11565b9150506117ce565b50565b600160009054906101000a900473ffffffffffffffffffffffffffffffffffffffff1673ffffffffffffffffffffffffffffffffffffffff163373ffffffffffffffffffffffffffffffffffffffff16146119f9576040517f08c379a00000000000000000000000000000000000000000000000000000000081526004016119f090613e01565b60405180910390fd5b6000600660146101000a81548160ff021916908315150217905550565b6000600160009054906101000a900473ffffffffffffffffffffffffffffffffffffffff1673ffffffffffffffffffffffffffffffffffffffff163373ffffffffffffffffffffffffffffffffffffffff1614611aa8576040517f08c379a0000000000000000000000000000000000000000000000000000000008152600401611a9f90613cdd565b60405180910390fd5b47905090565b6000600160009054906101000a900473ffffffffffffffffffffffffffffffffffffffff1673ffffffffffffffffffffffffffffffffffffffff163373ffffffffffffffffffffffffffffffffffffffff1614611b40576040517f08c379a0000000000000000000000000000000000000000000000000000000008152600401611b3790613cdd565b60405180910390fd5b600454905090565b600a8181548110611b5857600080fd5b906000526020600020016000915054906101000a900473ffffffffffffffffffffffffffffffffffffffff1681565b6000806000803373ffffffffffffffffffffffffffffffffffffffff1673ffffffffffffffffffffffffffffffffffffffff1681526020019081526020016000206001015411611c0c576040517f08c379a0000000000000000000000000000000000000000000000000000000008152600401611c03906140f5565b60405180910390fd5b600160009054906101000a900473ffffffffffffffffffffffffffffffffffffffff1673ffffffffffffffffffffffffffffffffffffffff163373ffffffffffffffffffffffffffffffffffffffff161480611c9357508173ffffffffffffffffffffffffffffffffffffffff163373ffffffffffffffffffffffffffffffffffffffff16145b611cd2576040517f08c379a0000000000000000000000000000000000000000000000000000000008152600401611cc99061449d565b60405180910390fd5b6000808373ffffffffffffffffffffffffffffffffffffffff1673ffffffffffffffffffffffffffffffffffffffff168152602001908152602001600020600201549050919050565b6000600160009054906101000a900473ffffffffffffffffffffffffffffffffffffffff1673ffffffffffffffffffffffffffffffffffffffff163373ffffffffffffffffffffffffffffffffffffffff1614611dad576040517f08c379a0000000000000000000000000000000000000000000000000000000008152600401611da490613cdd565b60405180910390fd5b600554905090565b600660149054906101000a900460ff1681565b600160009054906101000a900473ffffffffffffffffffffffffffffffffffffffff1673ffffffffffffffffffffffffffffffffffffffff163373ffffffffffffffffffffffffffffffffffffffff1614611e58576040517f08c379a0000000000000000000000000000000000000000000000000000000008152600401611e4f90613cdd565b60405180910390fd5b8060048190555050565b60011515600b60003373ffffffffffffffffffffffffffffffffffffffff1673ffffffffffffffffffffffffffffffffffffffff16815260200190815260200160002060000160009054906101000a900460ff16151514611ef8576040517f08c379a0000000000000000000000000000000000000000000000000000000008152600401611eef9061452f565b60405180910390fd5b6000600b60003373ffffffffffffffffffffffffffffffffffffffff1673ffffffffffffffffffffffffffffffffffffffff16815260200190815260200160002060000160006101000a81548160ff0219169083151502179055503373ffffffffffffffffffffffffffffffffffffffff166108fc600660159054906101000a900463ffffffff1663ffffffff169081150290604051600060405180830381858888f19350505050158015611fb1573d6000803e3d6000fd5b50565b60045481565b6000600660159054906101000a900463ffffffff16905090565b6000611fde61355b565b60016006601a9054906101000a900463ffffffff16611ffd919061454f565b60078060068060200260405190810160405280929190826006801561205d576020028201916000905b82829054906101000a900460ff1660ff16815260200190600101906020826000010492830192600103820291508084116120265790505b50505050509050915091509091565b6006601a9054906101000a900463ffffffff1681565b60006020528060005260406000206000915090508060000154908060010154908060020154908060030180546120b7906145b6565b80601f01602080910402602001604051908101604052809291908181526020018280546120e3906145b6565b80156121305780601f1061210557610100808354040283529160200191612130565b820191906000526020600020905b81548152906001019060200180831161211357829003601f168201915b5050505050905084565b600047905090565b6009818154811061215257600080fd5b906000526020600020016000915054906101000a900473ffffffffffffffffffffffffffffffffffffffff1681565b60025481565b60011515600660149054906101000a900460ff161515146121dd576040517f08c379a00000000000000000000000000000000000000000000000000000000081526004016121d490614633565b60405180910390fd5b60001515600b60003373ffffffffffffffffffffffffffffffffffffffff1673ffffffffffffffffffffffffffffffffffffffff16815260200190815260200160002060000160009054906101000a900460ff16151514806122af57506006601a9054906101000a900463ffffffff1663ffffffff16600b60003373ffffffffffffffffffffffffffffffffffffffff1673ffffffffffffffffffffffffffffffffffffffff16815260200190815260200160002060000160029054906101000a900463ffffffff1663ffffffff1614155b6122ee576040517f08c379a00000000000000000000000000000000000000000000000000000000081526004016122e5906146c5565b60405180910390fd5b600660159054906101000a900463ffffffff1663ffffffff163414612348576040517f08c379a000000000000000000000000000000000000000000000000000000000815260040161233f9061477d565b60405180910390fd5b6000805b60058160ff1610156123e3576000600182612367919061479d565b90505b60068160ff1610156123cf57838160ff166006811061238c5761238b613eb3565b5b602002015160ff16848360ff16600681106123aa576123a9613eb3565b5b602002015160ff16036123bc57600192505b80806123c7906147d2565b91505061236a565b5080806123db906147d2565b91505061234c565b50600015158115151461242b576040517f08c379a00000000000000000000000000000000000000000000000000000000081526004016124229061486d565b60405180910390fd5b60006001905060005b60068160ff1610156124a6576001848260ff166006811061245857612457613eb3565b5b602002015160ff16108061248957506031848260ff166006811061247f5761247e613eb3565b5b602002015160ff16115b1561249357600091505b808061249e906147d2565b915050612434565b5060011515811515146124ee576040517f08c379a00000000000000000000000000000000000000000000000000000000081526004016124e5906148ff565b60405180910390fd5b6006601a9054906101000a900463ffffffff16600b60003373ffffffffffffffffffffffffffffffffffffffff1673ffffffffffffffffffffffffffffffffffffffff16815260200190815260200160002060000160026101000a81548163ffffffff021916908363ffffffff1602179055506001600b60003373ffffffffffffffffffffffffffffffffffffffff1673ffffffffffffffffffffffffffffffffffffffff16815260200190815260200160002060000160006101000a81548160ff0219169083151502179055506000600b60003373ffffffffffffffffffffffffffffffffffffffff1673ffffffffffffffffffffffffffffffffffffffff16815260200190815260200160002060000160016101000a81548160ff02191690831515021790555060005b60068160ff1610156126cb57838160ff166006811061263c5761263b613eb3565b5b6020020151600b60003373ffffffffffffffffffffffffffffffffffffffff1673ffffffffffffffffffffffffffffffffffffffff1681526020019081526020016000206001018260ff166006811061269857612697613eb3565b5b602091828204019190066101000a81548160ff021916908360ff16021790555080806126c3906147d2565b91505061261a565b506009339080600181540180825580915050600190039060005260206000200160009091909190916101000a81548173ffffffffffffffffffffffffffffffffffffffff021916908373ffffffffffffffffffffffffffffffffffffffff1602179055506001600860008282829054906101000a900463ffffffff166127519190614071565b92506101000a81548163ffffffff021916908363ffffffff160217905550505050565b60035481565b600160009054906101000a900473ffffffffffffffffffffffffffffffffffffffff1673ffffffffffffffffffffffffffffffffffffffff163373ffffffffffffffffffffffffffffffffffffffff161461280a576040517f08c379a000000000000000000000000000000000000000000000000000000000815260040161280190613e01565b60405180910390fd5b60008163ffffffff1611612853576040517f08c379a000000000000000000000000000000000000000000000000000000000815260040161284a90614991565b60405180910390fd5b80600660156101000a81548163ffffffff021916908363ffffffff16021790555050565b60008060003373ffffffffffffffffffffffffffffffffffffffff1673ffffffffffffffffffffffffffffffffffffffff16815260200190815260200160002060010154116128fb576040517f08c379a00000000000000000000000000000000000000000000000000000000081526004016128f2906140f5565b60405180910390fd5b6000341161293e576040517f08c379a0000000000000000000000000000000000000000000000000000000008152600401612935906149fd565b60405180910390fd5b612947336132e0565b346000803373ffffffffffffffffffffffffffffffffffffffff1673ffffffffffffffffffffffffffffffffffffffff16815260200190815260200160002060000160008282546129989190614115565b92505081905550426000803373ffffffffffffffffffffffffffffffffffffffff1673ffffffffffffffffffffffffffffffffffffffff16815260200190815260200160002060010181905550600660009054906101000a900473ffffffffffffffffffffffffffffffffffffffff1673ffffffffffffffffffffffffffffffffffffffff1663608032ed6040518163ffffffff1660e01b8152600401602060405180830381865afa158015612a52573d6000803e3d6000fd5b505050506040513d601f19601f82011682018060405250810190612a769190614a32565b471115612aa0574760056000828254612a8f9190614115565b92505081905550612a9f476133af565b5b565b600b6020528060005260406000206000915090508060000160009054906101000a900460ff16908060000160019054906101000a900460ff16908060000160029054906101000a900463ffffffff16905083565b600160009054906101000a900473ffffffffffffffffffffffffffffffffffffffff1673ffffffffffffffffffffffffffffffffffffffff163373ffffffffffffffffffffffffffffffffffffffff1614612b86576040517f08c379a0000000000000000000000000000000000000000000000000000000008152600401612b7d90613e01565b60405180910390fd5b60008160ff16118015612b9d5750605a8160ff1611155b612bdc576040517f08c379a0000000000000000000000000000000000000000000000000000000008152600401612bd390614ad1565b60405180910390fd5b80600660196101000a81548160ff021916908360ff16021790555050565b60055481565b600160009054906101000a900473ffffffffffffffffffffffffffffffffffffffff1673ffffffffffffffffffffffffffffffffffffffff163373ffffffffffffffffffffffffffffffffffffffff1614612c90576040517f08c379a0000000000000000000000000000000000000000000000000000000008152600401612c8790613cdd565b60405180910390fd5b600660009054906101000a900473ffffffffffffffffffffffffffffffffffffffff1673ffffffffffffffffffffffffffffffffffffffff1663608032ed6040518163ffffffff1660e01b8152600401602060405180830381865afa158015612cfd573d6000803e3d6000fd5b505050506040513d601f19601f82011682018060405250810190612d219190614a32565b8111612d62576040517f08c379a0000000000000000000000000000000000000000000000000000000008152600401612d5990614b63565b60405180910390fd5b612d6b816133af565b50565b600160009054906101000a900473ffffffffffffffffffffffffffffffffffffffff1673ffffffffffffffffffffffffffffffffffffffff163373ffffffffffffffffffffffffffffffffffffffff1614612dfe576040517f08c379a0000000000000000000000000000000000000000000000000000000008152600401612df590613e01565b60405180910390fd5b6001600660146101000a81548160ff021916908315150217905550565b60008060003373ffffffffffffffffffffffffffffffffffffffff1673ffffffffffffffffffffffffffffffffffffffff1681526020019081526020016000206001015414612e9f576040517f08c379a0000000000000000000000000000000000000000000000000000000008152600401612e9690614bcf565b60405180910390fd5b6000815103612ee3576040517f08c379a0000000000000000000000000000000000000000000000000000000008152600401612eda90614c3b565b60405180910390fd5b60006040518060800160405280600081526020014281526020016004548152602001838152509050806000803373ffffffffffffffffffffffffffffffffffffffff1673ffffffffffffffffffffffffffffffffffffffff1681526020019081526020016000206000820151816000015560208201518160010155604082015181600201556060820151816003019081612f7d9190614e07565b509050505050565b600660009054906101000a900473ffffffffffffffffffffffffffffffffffffffff1673ffffffffffffffffffffffffffffffffffffffff16632e1a7d4d826040518263ffffffff1660e01b8152600401612fe0919061365a565b600060405180830381600087803b158015612ffa57600080fd5b505af115801561300e573d6000803e3d6000fd5b505050504260038190555050565b61302461355b565b61302c61355b565b60004233604051602001613041929190614f42565b6040516020818303038152906040528051906020012060001c905060005b60068160ff16101561314c576000600160318461307c9190614f6e565b613086919061479d565b90505b613093848261343c565b156130e457826040516020016130a99190614f9f565b6040516020818303038152906040528051906020012060001c925060016031846130d39190614f6e565b6130dd919061479d565b9050613089565b80848360ff16600681106130fb576130fa613eb3565b5b602002019060ff16908160ff16815250508260405160200161311d9190614f9f565b6040516020818303038152906040528051906020012060001c9250508080613144906147d2565b91505061305f565b50819250505090565b60006006801461319a576040517f08c379a00000000000000000000000000000000000000000000000000000000081526004016131919061502c565b60405180910390fd5b60006001905060005b60068160ff16101561320c57838160ff16600681106131c5576131c4613eb3565b5b602002015160ff16858260ff16600681106131e3576131e2613eb3565b5b602002015160ff16146131f9576000915061320c565b8080613204906147d2565b9150506131a3565b508091505092915050565b6000806000808473ffffffffffffffffffffffffffffffffffffffff1673ffffffffffffffffffffffffffffffffffffffff16815260200190815260200160002060010154426132679190614247565b9050600063bbf81e00826004546000808873ffffffffffffffffffffffffffffffffffffffff1673ffffffffffffffffffffffffffffffffffffffff168152602001908152602001600020600001546132c09190613f3d565b6132ca9190613f3d565b6132d49190613fae565b90508092505050919050565b60006132eb82613217565b90504260038190555080600260008282546133069190614115565b92505081905550806000808473ffffffffffffffffffffffffffffffffffffffff1673ffffffffffffffffffffffffffffffffffffffff168152602001908152602001600020600001600082825461335e9190614115565b92505081905550426000808473ffffffffffffffffffffffffffffffffffffffff1673ffffffffffffffffffffffffffffffffffffffff168152602001908152602001600020600101819055505050565b600660009054906101000a900473ffffffffffffffffffffffffffffffffffffffff1673ffffffffffffffffffffffffffffffffffffffff1663d0e30db0826040518263ffffffff1660e01b81526004016000604051808303818588803b15801561341957600080fd5b505af115801561342d573d6000803e3d6000fd5b50505050504260038190555050565b600080600090505b60068160ff161015613494578260ff16848260ff166006811061346a57613469613eb3565b5b602002015160ff160361348157600191505061349a565b808061348c906147d2565b915050613444565b50600090505b92915050565b826006601f016020900481019282156135295791602002820160005b838211156134fa57835183826101000a81548160ff021916908360ff16021790555092602001926001016020816000010492830192600103026134bc565b80156135275782816101000a81549060ff02191690556001016020816000010492830192600103026134fa565b505b509050613536919061357d565b5090565b5080546000825590600052602060002090810190613558919061357d565b50565b6040518060c00160405280600690602082028036833780820191505090505090565b5b8082111561359657600081600090555060010161357e565b5090565b600063ffffffff82169050919050565b6135b38161359a565b82525050565b60006020820190506135ce60008301846135aa565b92915050565b6000604051905090565b600080fd5b600080fd5b6000819050919050565b6135fb816135e8565b811461360657600080fd5b50565b600081359050613618816135f2565b92915050565b600060208284031215613634576136336135de565b5b600061364284828501613609565b91505092915050565b613654816135e8565b82525050565b600060208201905061366f600083018461364b565b92915050565b600060ff82169050919050565b61368b81613675565b82525050565b60006020820190506136a66000830184613682565b92915050565b600060069050919050565b600081905092915050565b6000819050919050565b6136d581613675565b82525050565b60006136e783836136cc565b60208301905092915050565b6000602082019050919050565b613709816136ac565b61371381846136b7565b925061371e826136c2565b8060005b8381101561374f57815161373687826136db565b9650613741836136f3565b925050600181019050613722565b505050505050565b600060e08201905061376c60008301856135aa565b6137796020830184613700565b9392505050565b600073ffffffffffffffffffffffffffffffffffffffff82169050919050565b60006137ab82613780565b9050919050565b6137bb816137a0565b82525050565b60006020820190506137d660008301846137b2565b92915050565b6137e5816137a0565b81146137f057600080fd5b50565b600081359050613802816137dc565b92915050565b60006020828403121561381e5761381d6135de565b5b600061382c848285016137f3565b91505092915050565b60008115159050919050565b61384a81613835565b82525050565b60006020820190506138656000830184613841565b92915050565b600081519050919050565b600082825260208201905092915050565b60005b838110156138a557808201518184015260208101905061388a565b60008484015250505050565b6000601f19601f8301169050919050565b60006138cd8261386b565b6138d78185613876565b93506138e7818560208601613887565b6138f0816138b1565b840191505092915050565b6000608082019050613910600083018761364b565b61391d602083018661364b565b61392a604083018561364b565b818103606083015261393c81846138c2565b905095945050505050565b600080fd5b7f4e487b7100000000000000000000000000000000000000000000000000000000600052604160045260246000fd5b613984826138b1565b810181811067ffffffffffffffff821117156139a3576139a261394c565b5b80604052505050565b60006139b66135d4565b90506139c2828261397b565b919050565b600067ffffffffffffffff8211156139e2576139e161394c565b5b602082029050919050565b600080fd5b6139fb81613675565b8114613a0657600080fd5b50565b600081359050613a18816139f2565b92915050565b6000613a31613a2c846139c7565b6139ac565b90508060208402830185811115613a4b57613a4a6139ed565b5b835b81811015613a745780613a608882613a09565b845260208401935050602081019050613a4d565b5050509392505050565b600082601f830112613a9357613a92613947565b5b6006613aa0848285613a1e565b91505092915050565b600060c08284031215613abf57613abe6135de565b5b6000613acd84828501613a7e565b91505092915050565b613adf8161359a565b8114613aea57600080fd5b50565b600081359050613afc81613ad6565b92915050565b600060208284031215613b1857613b176135de565b5b6000613b2684828501613aed565b91505092915050565b6000606082019050613b446000830186613841565b613b516020830185613841565b613b5e60408301846135aa565b949350505050565b600060208284031215613b7c57613b7b6135de565b5b6000613b8a84828501613a09565b91505092915050565b600080fd5b600067ffffffffffffffff821115613bb357613bb261394c565b5b613bbc826138b1565b9050602081019050919050565b82818337600083830152505050565b6000613beb613be684613b98565b6139ac565b905082815260208101848484011115613c0757613c06613b93565b5b613c12848285613bc9565b509392505050565b600082601f830112613c2f57613c2e613947565b5b8135613c3f848260208601613bd8565b91505092915050565b600060208284031215613c5e57613c5d6135de565b5b600082013567ffffffffffffffff811115613c7c57613c7b6135e3565b5b613c8884828501613c1a565b91505092915050565b7f63616e206f6e6c792062652063616c6c656420627920746865206f776e657200600082015250565b6000613cc7601f83613876565b9150613cd282613c91565b602082019050919050565b60006020820190508181036000830152613cf681613cba565b9050919050565b7f446f6e2774206861766520656e6f75676820616d6f756e7420746f207769746860008201527f6472617700000000000000000000000000000000000000000000000000000000602082015250565b6000613d59602483613876565b9150613d6482613cfd565b604082019050919050565b60006020820190508181036000830152613d8881613d4c565b9050919050565b7f4f6e6c792074686520636f6e74726163742061646d696e2063616e2063616c6c60008201527f20746869732066756e6374696f6e2e0000000000000000000000000000000000602082015250565b6000613deb602f83613876565b9150613df682613d8f565b604082019050919050565b60006020820190508181036000830152613e1a81613dde565b9050919050565b7f54686572652073686f756c64206265206174206c65617374206f6e6520706c6160008201527f79657220696e20612067616d652e000000000000000000000000000000000000602082015250565b6000613e7d602e83613876565b9150613e8882613e21565b604082019050919050565b60006020820190508181036000830152613eac81613e70565b9050919050565b7f4e487b7100000000000000000000000000000000000000000000000000000000600052603260045260246000fd5b7f4e487b7100000000000000000000000000000000000000000000000000000000600052601160045260246000fd5b6000613f1c8261359a565b915063ffffffff8203613f3257613f31613ee2565b5b600182019050919050565b6000613f48826135e8565b9150613f53836135e8565b9250828202613f61816135e8565b91508282048414831517613f7857613f77613ee2565b5b5092915050565b7f4e487b7100000000000000000000000000000000000000000000000000000000600052601260045260246000fd5b6000613fb9826135e8565b9150613fc4836135e8565b925082613fd457613fd3613f7f565b5b828204905092915050565b7f57696e6e65722068617320616c726561647920636c61696d656420746865207060008201527f72697a652e000000000000000000000000000000000000000000000000000000602082015250565b600061403b602583613876565b915061404682613fdf565b604082019050919050565b6000602082019050818103600083015261406a8161402e565b9050919050565b600061407c8261359a565b91506140878361359a565b9250828201905063ffffffff8111156140a3576140a2613ee2565b5b92915050565b7f546869732075736572206973206e6f7420726567697374657265640000000000600082015250565b60006140df601b83613876565b91506140ea826140a9565b602082019050919050565b6000602082019050818103600083015261410e816140d2565b9050919050565b6000614120826135e8565b915061412b836135e8565b925082820190508082111561414357614142613ee2565b5b92915050565b7f5769746864726177616c20616d6f756e74206d7573742062652067726561746560008201527f72207468616e207a65726f000000000000000000000000000000000000000000602082015250565b60006141a5602b83613876565b91506141b082614149565b604082019050919050565b600060208201905081810360008301526141d481614198565b9050919050565b7f496e73756666696369656e742062616c616e6365000000000000000000000000600082015250565b6000614211601483613876565b915061421c826141db565b602082019050919050565b6000602082019050818103600083015261424081614204565b9050919050565b6000614252826135e8565b915061425d836135e8565b925082820390508181111561427557614274613ee2565b5b92915050565b7f6e6f7420656e6f75676800000000000000000000000000000000000000000000600082015250565b60006142b1600a83613876565b91506142bc8261427b565b602082019050919050565b600060208201905081810360008301526142e0816142a4565b9050919050565b600081905092915050565b50565b60006143026000836142e7565b915061430d826142f2565b600082019050919050565b6000614323826142f5565b9150819050919050565b7f5769746864726177616c206661696c6564000000000000000000000000000000600082015250565b6000614363601183613876565b915061436e8261432d565b602082019050919050565b6000602082019050818103600083015261439281614356565b9050919050565b7f506c65617365207061757365207468652067616d65206265666f72652063616e60008201527f63656c6c696e672069742e000000000000000000000000000000000000000000602082015250565b60006143f5602b83613876565b915061440082614399565b604082019050919050565b60006020820190508181036000830152614424816143e8565b9050919050565b7f596f752063616e206e6f7420676574206f746865722070656f706c652773206960008201527f6e6572657374526174652e000000000000000000000000000000000000000000602082015250565b6000614487602b83613876565b91506144928261442b565b604082019050919050565b600060208201905081810360008301526144b68161447a565b9050919050565b7f546865207469636b657420697320696e76616c696420616e642074687573206360008201527f616e6e6f742070726f636565642e000000000000000000000000000000000000602082015250565b6000614519602e83613876565b9150614524826144bd565b604082019050919050565b600060208201905081810360008301526145488161450c565b9050919050565b600061455a8261359a565b91506145658361359a565b9250828203905063ffffffff81111561458157614580613ee2565b5b92915050565b7f4e487b7100000000000000000000000000000000000000000000000000000000600052602260045260246000fd5b600060028204905060018216806145ce57607f821691505b6020821081036145e1576145e0614587565b5b50919050565b7f47616d65206973206e6f74206f6e676f696e672e000000000000000000000000600082015250565b600061461d601483613876565b9150614628826145e7565b602082019050919050565b6000602082019050818103600083015261464c81614610565b9050919050565b7f4f6e6c79206f6e65207469636b6574206174206d6f737420696e20612067616d60008201527f6520726f756e642e000000000000000000000000000000000000000000000000602082015250565b60006146af602883613876565b91506146ba82614653565b604082019050919050565b600060208201905081810360008301526146de816146a2565b9050919050565b7f496e636f72726563742070616964204574686572732c20636865636b2074686560008201527f2070726963652062792066756e6374696f6e206765745469636b65745072696360208201527f6520616e642074727920616761696e2e00000000000000000000000000000000604082015250565b6000614767605083613876565b9150614772826146e5565b606082019050919050565b600060208201905081810360008301526147968161475a565b9050919050565b60006147a882613675565b91506147b383613675565b9250828201905060ff8111156147cc576147cb613ee2565b5b92915050565b60006147dd82613675565b915060ff82036147f0576147ef613ee2565b5b600182019050919050565b7f4e6f206475706c6963617465206e756d626572732061726520616c6c6f77656460008201527f2e00000000000000000000000000000000000000000000000000000000000000602082015250565b6000614857602183613876565b9150614862826147fb565b604082019050919050565b600060208201905081810360008301526148868161484a565b9050919050565b7f416c6c2073656c6563746564206e756d626572732073686f756c64206265206260008201527f65747765656e20317e34392c20696e636c75736976652e000000000000000000602082015250565b60006148e9603783613876565b91506148f48261488d565b604082019050919050565b60006020820190508181036000830152614918816148dc565b9050919050565b7f546865206e6577207469636b65742070726963652073686f756c64206265206c60008201527f6172676572207468616e20302e00000000000000000000000000000000000000602082015250565b600061497b602d83613876565b91506149868261491f565b604082019050919050565b600060208201905081810360008301526149aa8161496e565b9050919050565b7f4465706f73697420616d6f756e742063616e206e6f74206265207a65726f0000600082015250565b60006149e7601e83613876565b91506149f2826149b1565b602082019050919050565b60006020820190508181036000830152614a16816149da565b9050919050565b600081519050614a2c816135f2565b92915050565b600060208284031215614a4857614a476135de565b5b6000614a5684828501614a1d565b91505092915050565b7f546865206e65772070657263656e746167652073686f756c64206265203e203060008201527f20616e64203c3d2039302e000000000000000000000000000000000000000000602082015250565b6000614abb602b83613876565b9150614ac682614a5f565b604082019050919050565b60006020820190508181036000830152614aea81614aae565b9050919050565b7f4465706f73697420616d6f756e742063616e206e6f74206265206c657373207460008201527f68616e206c6f776573744465706f736974416d6f756e74000000000000000000602082015250565b6000614b4d603783613876565b9150614b5882614af1565b604082019050919050565b60006020820190508181036000830152614b7c81614b40565b9050919050565b7f54686973207573657220697320616c7265616479207265676973746572656400600082015250565b6000614bb9601f83613876565b9150614bc482614b83565b602082019050919050565b60006020820190508181036000830152614be881614bac565b9050919050565b7f4e616d65206973206e6f742070726f7669646564000000000000000000000000600082015250565b6000614c25601483613876565b9150614c3082614bef565b602082019050919050565b60006020820190508181036000830152614c5481614c18565b9050919050565b60008190508160005260206000209050919050565b60006020601f8301049050919050565b600082821b905092915050565b600060088302614cbd7fffffffffffffffffffffffffffffffffffffffffffffffffffffffffffffffff82614c80565b614cc78683614c80565b95508019841693508086168417925050509392505050565b6000819050919050565b6000614d04614cff614cfa846135e8565b614cdf565b6135e8565b9050919050565b6000819050919050565b614d1e83614ce9565b614d32614d2a82614d0b565b848454614c8d565b825550505050565b600090565b614d47614d3a565b614d52818484614d15565b505050565b5b81811015614d7657614d6b600082614d3f565b600181019050614d58565b5050565b601f821115614dbb57614d8c81614c5b565b614d9584614c70565b81016020851015614da4578190505b614db8614db085614c70565b830182614d57565b50505b505050565b600082821c905092915050565b6000614dde60001984600802614dc0565b1980831691505092915050565b6000614df78383614dcd565b9150826002028217905092915050565b614e108261386b565b67ffffffffffffffff811115614e2957614e2861394c565b5b614e3382546145b6565b614e3e828285614d7a565b600060209050601f831160018114614e715760008415614e5f578287015190505b614e698582614deb565b865550614ed1565b601f198416614e7f86614c5b565b60005b82811015614ea757848901518255600182019150602085019450602081019050614e82565b86831015614ec45784890151614ec0601f891682614dcd565b8355505b6001600288020188555050505b505050505050565b6000819050919050565b614ef4614eef826135e8565b614ed9565b82525050565b60008160601b9050919050565b6000614f1282614efa565b9050919050565b6000614f2482614f07565b9050919050565b614f3c614f37826137a0565b614f19565b82525050565b6000614f4e8285614ee3565b602082019150614f5e8284614f2b565b6014820191508190509392505050565b6000614f79826135e8565b9150614f84836135e8565b925082614f9457614f93613f7f565b5b828206905092915050565b6000614fab8284614ee3565b60208201915081905092915050565b7f506c61796572206e756d626572206c656e6774682073686f756c64206265206560008201527f7175616c20746f2077696e6e6572206e756d626572206c656e6774682e000000602082015250565b6000615016603d83613876565b915061502182614fba565b604082019050919050565b6000602082019050818103600083015261504581615009565b905091905056fea26469706673582212203357bb542b0b22be0d05c85f0123a45c1de3f3e3c4057be44c21dd9930e03c8464736f6c63430008110033",
  "linkReferences": {},
  "deployedLinkReferences": {}
}